:020000040800F2
:10000000A00400209D0100085F150008631400088B
:100010005D1500088502000899190008000000001D
:100020000000000000000000000000008315000830
:10003000ED02000800000000811500088515000889
:10004000B7010008B7010008B7010008B7010008B0
:10005000B7010008B7010008B7010008B7010008A0
:10006000B7010008B7010008B7010008B701000890
:10007000B7010008B7010008B7010008B701000880
:10008000B7010008B7010008B7010008B701000870
:1000900089020008B7010008B7010008B70100088D
:1000A000B7010008B7010008B7010008B701000850
:1000B000B7010008B7010008B7010008B701000840
:1000C000B7010008B7010008B7010008B701000830
:1000D000B7010008B7010008B7010008B701000820
:1000E000B7010008B7010008B7010008B701000810
:1000F000B7010008B7010008B7010008B701000800
:10010000B7010008B7010008B7010008B7010008EF
:10011000B7010008B7010008B7010008B7010008DF
:10012000B7010008B7010008B7010008B7010008CF
:10013000B7010008B7010008B7010008B7010008BF
:10014000B7010008B7010008B7010008B7010008AF
:10015000B7010008B7010008B7010008B70100089F
:10016000B7010008B7010008B7010008B70100088F
:10017000B7010008B7010008B7010008000000003F
:10018000B7010008B7010008DFF80CD000F068F8EC
:1001900000480047C91A0008A0040020064880470C
:1001A00006480047FEE7FEE7FEE7FEE7FEE7FEE75C
:1001B000FEE7FEE7FEE7FEE73516000889010008C6
:1001C0002DE9F05F0546002092469B46884606468C
:1001D000814640241BE0284641464746224600F01F
:1001E0002FF853465A46C01A914110D3114618466B
:1001F000224600F016F82D1A67EB01084F462246FA
:100200000120002100F00DF817EB00094E41201EDF
:10021000A4F10104DFDC484631462A464346BDE8E6
:10022000F09F202A04DB203A00FA02F100207047F8
:100230009140C2F1200320FA03F319439040704724
:10024000202A04DB203A21FA02F00021704721FA2B
:1002500002F3D040C2F12002914008431946704792
:10026000064C074D06E0E06840F0010394E8070003
:1002700098471034AC42F6D3FFF78AFF401B0008C2
:10028000601B0008FEE70000014800F0ADB9000067
:100290003800002000B589B0082004901820009094
:1002A00042F21800019004200290002009A103905E
:1002B000D1E90001CDE90601012306AA69460748F4
:1002C00000F029F8002802D005A001F067FB09B072
:1002D00000BD000032303138303431313800002078
:1002E000B7A2CBCDCAA7B0DC00000000704790F8E1
:1002F0002020012A09D090F82020022A05D0416A46
:1003000041F48021416201207047006842690A433C
:10031000426100207047F0B590F82040012C07D0D2
:1003200090F82040022C03D0416A41F4802153E030
:100330000468A5686D0105D4A5682D0102D4A568DF
:10034000ED0046D5A4680125C4F30164A5401D60F5
:100350008D684FF4C0739DB1CE6835434E6845EA51
:10036000C605066803EB0417F5514FF4C27507681C
:1003700005EB04150E697E51097D012905D009E0C0
:100380000E88CD6845EA4655EBE701684E5946F4BC
:1003900080764E511179D2F805504FF4C67641EA75
:1003A0000521056806EB0416A9511178D2F8012041
:1003B0004FF4C47541EA0221026805EB041551515E
:1003C000006803EB0411425842F001024250002041
:1003D000F0BD416A41F4001141620120F0BD00000E
:1003E00010B590F82020012A09D090F82020022A88
:1003F00005D0416A41F480214162012010BD3A4894
:10040000D0F8002242F00102C0F80022D0F8002209
:1004100022F47C52C0F80022D0F800224B6A42EA53
:100420000322C0F800220B7D01229A40D0F81C3232
:100430009343C0F81C32CB69B3B9D0F80C32934364
:10044000C0F80C328C894B6864F31F434C6900EB95
:10045000C404C4F840320C890B6864F31F434C6930
:1004600000EBC404C4F84432CB69012B16D1D0F898
:100470000C321343C0F80C320C884B6864F31F43F2
:100480004C6900EBC404C4F840320C89CB6864F3B7
:100490001F434C6900EBC404C4F844328B69002B41
:1004A000D0F804320ED01343C0F804320B69002B8D
:1004B000D0F8143208D01343C0F81432096A012965
:1004C00004D008E09343EFE79343F5E7D0F81C121C
:1004D0001143C0F81C12D0F8001221F00101C0F83D
:1004E0000012002010BD000000640040704730B5CD
:1004F00090F82040012C07D090F82040022C03D027
:10050000416A41F4802109E011B1012909D00CE0D0
:100510000468E46807E0416A41F400114162012087
:1005200030BD04682469A407F5D04FF4D874056879
:1005300004EB01142D5915F00405956005682D593B
:1005400042D0ED08556005682C59C4F34004D460CE
:100550004FF4DA74056804EB01142D5905F00F050A
:10056000156105682D59C5F30725956105682C5956
:10057000240C54614FF4DC72046802EB0112A4589D
:100580001C700468A458240A5C700468A458240CE5
:100590009C700468A258120EDA704FF4DE72046880
:1005A00002EB0112A4581C710468A458240A5C715F
:1005B0000468A458240C9C710468A258120EDA71C5
:1005C00029B1012909D00DE06D0D1560BBE7006868
:1005D000C16841F02001C16004E00068016941F098
:1005E00020010161002030BD2DE9F05F0546006863
:1005F00000244669D0F804908768D0F80CB0D0F891
:1006000010A0D0F81880F10748D0F90714D00121C4
:100610008160B80703D5284600F015FA0CE078078A
:1006200002D54FF4006407E0380702D54FF4805438
:1006300002E0284600F006FAF80516D529684FF4BE
:1006400080708860B80503D5284600F0FEF90CE0FC
:10065000780502D544F4005407E0380502D544F487
:10066000804402E0284600F0EFF9F80316D5296827
:100670004FF480308860B80303D5284600F0E7F9CE
:100680000CE0780302D544F4004407E0380302D5B7
:1006900044F4803402E0284600F0D8F9300707D54A
:1006A0005FEACB6004D52968102044F40074C86068
:1006B00070074FF0080707D55FEA0B7004D528686C
:1006C000C760284600F056F9B00706D52868C0680C
:1006D000800702D0284600F04FF9700607D55FEA80
:1006E000CA6004D52968102044F480640861B0060B
:1006F00007D55FEA0A7004D528680761284600F02C
:1007000055F9F00606D528680069800702D028460A
:1007100000F04EF9B00308D55FEAC96005D5296835
:1007200010204860284600F05FF9F00307D55FEA23
:10073000097004D528684760284600F089F930041C
:1007400046D55FEA497040D5F00504D55FEAC87028
:1007500001D044F00104B00504D55FEA887001D5EA
:1007600044F00204700504D55FEA487001D544F0F6
:100770000404300529D518F0700F26D008F0700059
:10078000402815D006DC102809D020280AD03028AF
:1007900016D10AE050280ED0602811D10EE044F0A6
:1007A00008040DE044F010040AE044F0200407E0DF
:1007B00044F0400404E044F0800401E044F4807418
:1007C0002868816921F070018161296804204860EE
:1007D000002C05D0686A204368622846FFF786FE31
:1007E000BDE8F09F70B5040003D094F8200010B16C
:1007F00004E0012070BD204600F082F82068016806
:1008000021F00201016000F00FFA0546052604E020
:1008100000F00AFA401B0A2811D8206840688007B7
:10082000F6D42068016841F00101016000F0FCF994
:1008300005460BE000F0F8F9401B0A2806D9606A6B
:1008400040F40030606284F82060D2E7206840689D
:10085000C007EFD0207E0128206801683DD021F03C
:1008600080010160607E01282068016838D021F095
:1008700040010160A07E01282068016833D021F08A
:1008800020010160E07E0128206801682ED041F03F
:1008900010010160207F01282068016829D021F023
:1008A00008010160607F01282068016824D021F0E0
:1008B00004010160D4E902010843D4E904121143A0
:1008C00008436168491E08432168C86100206062CE
:1008D000012084F82000002070BD41F08001C0E7B5
:1008E00041F04001C5E741F02001CAE721F01001C5
:1008F000CFE741F00801D4E741F00401D9E7000057
:100900002DE9F0410068174986B0884227D1164882
:100910004FF00008016841F000710160006809278C
:1009200000F00070CDE9047003264FF40074022536
:1009300003968DE8300169460C4800F09DF88DE87B
:10094000300169460A48CDE9036700F095F80022B6
:100950001146142000F0FEF9142000F0EFF906B063
:10096000BDE8F081006400404038024000200240B1
:10097000000402407047000010B5074988420AD1C0
:10098000064B074A0021FFF7B2FDBDE810400349BE
:1009900004A001F003B810BD3800002000000020C2
:1009A0001C0000200D0A25730000000070470000A5
:1009B00010B5084A016891420AD1074B074A012144
:1009C000FFF795FDBDE81040034905A000F0E6BF24
:1009D00010BD000000680040000000201C00002046
:1009E0000D0A2573000000007047000070B5044632
:1009F00090F82000012804D0606A40F40020606272
:100A000018E0022084F820002068016821F001012C
:100A1000016000F009F905460EE000BF00F004F99E
:100A2000401B0A2808D9606A40F400306062052043
:100A300084F82000012070BD20684068C007EDD117
:100A4000606270BD7047704770477047704770476D
:100A50007047000070B5044600F0E6F80546601CDB
:100A600002D004480078044400F0DEF8401BA042A5
:100A7000FAD370BD080000202DE9F84FDFF87CB1F3
:100A800000224FF001084FF0030A4FF00F090BF15D
:100A9000040E00BF0B6808FA02F42340A3426ED193
:100AA0004D68022D01D0122D0ED1D50800EB850C1A
:100AB000DCF820505607F70E09FA07F6B5430E6921
:100AC000BE402E43CCF82060066855000F790AFA24
:100AD00005FC07F0030726EA0C06AF403743076022
:100AE0004E68012E05D0022E03D0112E01D0122EF9
:100AF0000ED18668CF6826EA0C06AF403743876080
:100B00004668A6430C79C4F300149440344344600F
:100B1000C6688C6826EA0C06AC403443C4604C6856
:100B2000E40065D5364C256845F480452560246889
:100B300022F0030504F480440094324C2E19D6F8B8
:100B4000084895072F0F09FA07F5AC432E4DA84228
:100B500001D1002524E02D4DA84201D101251FE03F
:100B60002B4DA84201D102251AE02A4DA84201D1FD
:100B7000032515E0284DA84202D1042510E037E0F6
:100B8000264DA84201D105250AE0254DA84201D1F4
:100B9000062505E0234DA84201D1072500E00825E0
:100BA000BD402543C6F80858DBF800405D464E6856
:100BB0009C43F60300D51C432C60DEF800407546CC
:100BC0004E689C43B60300D51C432C600B4D083582
:100BD0002C684E689C43F60200D51C432C60074DE0
:100BE0000C352C684E689C43B60200D51C432C6023
:100BF000521C102AFFF44EAFBDE8F88F003C0140B4
:100C0000443802400030014000000240000402402D
:100C100000080240000C0240001002400014024094
:100C200000180240001C0240014880687047000024
:100C300008000020024881680278114481607047F2
:100C4000080000200B4810B5016841F400710160F4
:100C5000016841F480610160016841F480710160C4
:100C6000032000F097F8002000F006F800F024F8C8
:100C7000002010BD003C024070B50D4D04464FF4FD
:100C80007A712878B1FBF0F00A490968B1FBF0F0FD
:100C900000F01BFB48B9102C07D200222146501E41
:100CA00000F058F800206C6070BD012070BD00009D
:100CB00008000020140000201F4808B5016841F416
:100CC00080410160006800F4804000901A48001FD5
:100CD000016841F080510160006800F08050009090
:100CE000032000F057F8002211466FF00B0000F0CF
:100CF00031F8002211466FF00A0000F02BF80022B4
:100D000011466FF0090000F025F800221146501F2F
:100D100000F020F800221146101F00F01BF80022FE
:100D20001146901E00F016F80022BDE8084011465A
:100D3000501E00F00FB800004438024000F01F02BF
:100D4000012191404009800000F1E020C0F800112D
:100D500070470000F0B40E4B1B680C46C3F302232F
:100D6000C3F10705042D00D90425191D072901D257
:100D7000002300E0DB1E012606FA05F1491E214092
:100D800099409E40761E16403143F0BC00F0E8BB0F
:100D90000CED00E0064900F0070208684FF6FF037B
:100DA000184040EA0220034A1043086070470000E0
:100DB0000CED00E00000FA052DE9F0470E460500B5
:100DC00065D0DFF81481D8F80000F7B200F00F000A
:100DD000B04207D288F80070D8F8000000F00F0089
:100DE000B04254D128683D4C810712D5400703D545
:100DF000206840F4E05020602878000703D5206880
:100E000040F4604020602068A96820F0F0000843AA
:100E100020602878C0072DD030496868083901283B
:100E200012D0022813D0032811D00968890700299D
:100E30002DDA216821F0030101432160FFF7F4FE60
:100E4000814641F2883A0EE009688903EFE70968B4
:100E50008901ECE7FFF7E8FEA0EB0901514502D953
:100E60000320BDE8F0872068696800F00C00B0EB53
:100E7000810FEFD1D8F80010404601F00F01B142C8
:100E800007D90770006800F00F00B04201D00120C0
:100E9000E7E72878400705D52068E96820F4E050A6
:100EA000084320602878000706D52068296920F4C7
:100EB000604040EAC100206000F03CF82168084A28
:100EC000C1F30311515CC840064908600020FFF7D8
:100ED000D3FE0020C5E70000003C02400838024075
:100EE000281B00081400002001480068704700001B
:100EF000140000200448054900680968044AC1F349
:100F00008221515CC840704714000020083802401C
:100F1000381B00080448054900680968044AC1F301
:100F20004231515CC840704714000020083802402C
:100F3000381B0008154810B5006810F00C02144862
:100F400013D04110042A0FD0082A0ED10F4C241FB1
:100F50002268236802F03F025B0207D52068C0F3D5
:100F60008810A0FB010106E0084610BD2168C1F30E
:100F70008811A1FB00010023FFF722F92168C1F3CA
:100F80000141491C4900B0FBF1F010BD0838024096
:100F90000024F4002DE9F84F050076D02878DFF81A
:100FA000F8B2BE4CC00749D0DBF800105846C1F378
:100FB0008101012908D00068C0F3810002280AD10C
:100FC000201D0068400206D52068800336D5686879
:100FD0000028E2D032E06868B0F5803F10D0B0F56C
:100FE000A02F206810D020F480302060206820F4EA
:100FF000802020606868A0B1FFF716FE06460CE06E
:10100000206840F48030F4E740F480202060F7E767
:10101000FFF70AFE801B642873D820688003F7D589
:101020000CE0FFF701FE064605E000BFFFF7FCFD00
:10103000801B6428F0D820688003F7D42878DFF874
:10104000608280074FF000093ED5DBF8001058465B
:1010500011F00C0F09D00068C0F3810002280BD1F9
:101060008D48001F0068400206D42068800715D50F
:10107000E868012809D111E0E868B8B10120C8F892
:101080000000FFF7D1FD064605E002E1FFF7CCFDC9
:10109000801B0228C0D820688007F7D520682969FE
:1010A00020F0F80040EAC10020600DE0C8F8009090
:1010B000FFF7BAFD064604E0FFF7B6FD801B0228E5
:1010C0001FD820688007F7D42878000722D5724EF1
:1010D000744869696C3671B101210160FFF7A4FDA4
:1010E000074604E0FFF7A0FDC01B022809D83068BE
:1010F0008007F7D50EE0C0F80090FFF795FD074692
:1011000005E083E0FFF790FDC01B02287ED8306821
:101110008007F7D42878400768D5DFF87CA100273E
:101120000AF1380ADAF80000C0000BD4DAF800102F
:1011300041F08051CAF80010DAF80000012700F0F1
:1011400080500090584E3068C00510D4306840F48C
:1011500080703060FFF768FD009005E0FFF764FDE8
:101160000099401A022851D83068C005F6D54A4E79
:10117000A868683601280FD00528306810D020F004
:1011800001003060306820F004003060A868B8B119
:10119000FFF74AFD00900FE0306840F00100F4E7EF
:1011A00040F004003060F7E7FFF73EFD0099411A78
:1011B00041F28830814264D830688007F4D50EE06F
:1011C000FFF732FD009007E0FFF72EFD0099411A6E
:1011D00041F28830814254D830688007F4D42FB16E
:1011E000DAF8001021F08051CAF80010A869C0B3E5
:1011F000DBF80010C1F3810102294AD002284846D9
:1012000007D0C8F86000FFF70FFD00E039E00546A1
:101210003AE04746C8F86000FFF706FD064604E0DE
:10122000FFF702FD801B02282BD820688001F7D42D
:10123000D5E907010843A96A1C4A490802EB0141A4
:101240006A6A41EA8211084395F82C1040EA01616C
:101250001148001F016001203866FFF7E5FC0546D4
:1012600005E014E0FFF7E0FC401B022809D82068E5
:101270008001F7D50BE000BFFFF7D6FC401B02282A
:1012800002D90320BDE8F88F20688001F4D4002043
:10129000F8E70120F6E70000083802400038024075
:1012A00000004742800E4742007000400000FFFFF0
:1012B0004FF0E0210428086903D020F00400086101
:1012C000704740F00400FAE7704710B5401EB0F1D7
:1012D000807F01D3012010BD4FF0E02460610F2119
:1012E000601700F03DF90020A06107202061002078
:1012F00010BD10B5FFF7E8FF10BD70B5040004D0B5
:1013000094F83900002510B106E0012070BD84F882
:101310003850204600F022F8242084F83900206854
:10132000C16821F40051C160204600F0ADF9206889
:10133000016921F4904101612068416921F02A018D
:1013400041612068C16841F40051C160E56320201B
:1013500084F8390084F83A00002070BD00B50068B8
:101360000E4987B0884216D10D48016841F010013E
:1013700001600068694600F010000590C0200090F0
:101380000220019001200290032003900720049086
:101390000448FFF771FB07B000BD000000100140DA
:1013A00044380240000402402DE9F843044690F816
:1013B00039001F4616460D46202850D1A5B19EB1D2
:1013C00094F8380001284AD0012084F838004FF002
:1013D0000008C4F83C80212084F83900FFF724FC81
:1013E000A6848146E68426E00120BDE8F883E08CEF
:1013F000401EE084A0684B46B0F5805F4FF00002CD
:101400004FF080012046009703D000F093FAE8B92E
:101410000DE000F08FFAC8B928882168C0F30800F1
:101420004860206908B16D1C05E0AD1C03E021682F
:1014300015F8010B4860E08C0028D8D14B460022FB
:1014400040212046009700F075FA08B10320CCE750
:10145000202084F8390084F838800020C5E7022075
:10146000C3E7FEE710B516488AB0144901600321AE
:101470000024C0E901144FF43021C0E90341446164
:10148000047644768476C47604774477FFF7AAF925
:1014900018B145210BA000F080FA0120CDE90640EB
:1014A0000394089000940E20CDE904400194029426
:1014B00069460348FEF794FF0AB010BD006400407F
:1014C000380000202E2E2F5372632F63616E2E631F
:1014D000000000000D4808B5016841F4807101600A
:1014E000016801F480710091016841F080010160A0
:1014F000016801F080010091016841F00201016082
:10150000006800F00200009008BD00003038024082
:101510000D4810B50B4901604FF4E13141600021E5
:1015200081600C22C160C0E904128161C161FFF7D2
:10153000E4FE002805D0BDE81040422103A000F0E1
:101540002CBA10BD00100140600000202E2E2F5339
:1015500072632F75736172742E630000FEE770472B
:101560000907090E002806DA00F00F0000F1E0205C
:1015700080F8141D704700F1E02080F800147047D7
:101580007047704710B5FFF755FBBDE81040FFF7F7
:10159000B0BE000030B5254893B00025016841F089
:1015A00080510160006800F080501190204801686F
:1015B00041F4804101600068022400F480401190F1
:1015C00001200090000401908001CDE90640082030
:1015D00008904FF4A870CDE9090404200B906846E8
:1015E000FFF7D8FC00B1FEE70CA90F2081E831001D
:1015F0004FF4A0500F904FF48050109005210CA88C
:10160000FFF7DAFB00B1FEE7FFF76EFC4FF47A71EB
:10161000B0FBF1F0FFF759FE0420FFF749FE00226E
:101620001146501EFFF796FB13B030BD4038024004
:10163000007000401048016841F4700101600F48DB
:10164000016841F0010101600C4A0021083211607B
:1016500002680B4B1A400260031D0A4A1A600268B6
:1016600022F48022026005480C30016002495806CD
:10167000803908607047000088ED00E000380240C3
:10168000FFFFF6FE103000242DE9F041044600680B
:10169000016921F44052E168114301612168C86881
:1016A00049F20C6290432369A268E5691A436369B1
:1016B0002B431A430243CA602168486920F44072F0
:1016C000A06910434861E1696425B1F5004F97486E
:1016D000974A21684FF032083FD0914201D08142B1
:1016E0007CD1FFF717FC00EBC00101EB0010616833
:1016F0008900B0FBF1F6FFF70DFC00EBC00101EB38
:10170000001061688900B0FBF1F0B0FBF5F06FF0FC
:101710001801484306EB800108EB0110B0FBF5F01F
:1017200000F0F006FFF7F6FB00EBC00101EB001044
:1017300061688900B0FBF1F0B0FBF5F006EB001634
:10174000FFF7E8FB00EBC00101EB001061688900C6
:10175000B0FBF1F7FFF7DEFBD2E0914201D081420E
:101760003DD1FFF7D7FB00EBC00101EB0010616832
:101770004900B0FBF1F0B0FBF5F00601FFF7CAFB42
:1017800000EBC00101EB001061684900B0FBF1F70C
:10179000FFF7C0FB00EBC00101EB001061684900DE
:1017A000B0FBF1F0B0FBF5F06FF01801484307EB28
:1017B000800108EBC100B0FBF5F000F0F80006EB8B
:1017C0004006FFF7A7FB00EBC00101EB00106168CA
:1017D0004900B0FBF1F7FFF79DFB3CE055E0FFF758
:1017E00089FB00EBC00101EB001061684900B0FB10
:1017F000F1F0B0FBF5F00601FFF77CFB00EBC00158
:1018000001EB001061684900B0FBF1F7FFF772FBD4
:1018100000EBC00101EB001061684900B0FBF1F082
:10182000B0FBF5F06FF01801484307EB800108EBBF
:10183000C100B0FBF5F000F0F80006EB4006FFF742
:1018400059FB00EBC00101EB001061684900B0FBDF
:10185000F1F7FFF74FFB00EBC00101EB00106168EF
:101860004900B0FBF1F0B0FBF5F06FF01801484310
:1018700007EB800108EBC100B0FBF5F000F00700BA
:10188000216830448860BDE8F081FFF733FB00EB4E
:10189000C00101EB001061688900B0FBF1F6FFF7B1
:1018A00029FB00EBC00101EB001061688900B0FB6F
:1018B000F1F0B0FBF5F06FF01801484306EB800142
:1018C00008EB0110B0FBF5F000F0F006FFF712FB9B
:1018D00000EBC00101EB001061688900B0FBF1F082
:1018E000B0FBF5F006EB0016FFF704FB00EBC001C0
:1018F00001EB001061688900B0FBF1F7FFF7FAFA1D
:1019000000EBC00101EB001061688900B0FBF1F051
:10191000B0FBF5F06FF01801484307EB800108EBCE
:101920000110B0FBF5F000F00F00A9E70014014032
:10193000001001402DE9F041984617460E46044636
:10194000069D1DE0681C1BD02DB1FFF76DF9A0EBC3
:101950000800A84214D92068C16821F4D071C16080
:101960002068416921F001014161202084F839009B
:1019700084F83A00002084F838000320BDE8F081A4
:101980002068006836EA000004D00020B842D9D0B0
:101990000020F3E70120F9E7FEE7FEE70FB4054B6F
:1019A00010B503A9044A029800F017F810BC5DF8BE
:1019B00014FB0000B11A00081800002002E008C85B
:1019C000121F08C1002AFAD170477047002001E0B9
:1019D00001C1121F002AFBD170472DE9F84F99462B
:1019E000924688460546002706E025280AD051463B
:1019F0004A4690476D1C7F1C28780028F5D1384650
:101A0000BDE8F88F002315F8011F18462E2915D1BF
:101A100015F8011F04232A290DD06FF02F02297811
:101A2000A1F13004092C09D800EB800002EB400042
:101A300008446D1CF3E758F8040B6D1C2A78002A43
:101A4000DDD0632A07D0732A0FD0104651464A468C
:101A500090477F1C2AE018F8042B8DF80020002105
:101A60008DF801106E46012103E058F8046B4FF029
:101A7000FF315A074FF0000401D409E0641C84428E
:101A80000BDA8C42FADB325D002AF7D105E0641CE8
:101A90008C42FCDB305D0028F9D1274404E016F8C5
:101AA000010B51464A469047641EF8D26D1CA3E7CD
:101AB00013B51423012269460248FFF775FC00980C
:101AC0001CBD000060000020FFF7BCF8FFF762FDBE
:101AD000FFF700FDFFF7C6FCFFF71AFD0A48FEF707
:101AE00085FF02210848FEF702FC10B107A0FFF7AE
:101AF00055FF0AA0FFF752FF41F288342046FEF757
:101B0000A9FFFEF7C7FBF9E738000020B9D2BBFAFE
:101B1000D6D0B6CFCAA7B0DC0D0A000043414E2094
:101B2000746573740D0A00000000000000000000DE
:101B30000102030406070809000000000102030473
:101B4000601B0008000000201C000000BC190008F9
:101B50007C1B00081C00002084040000CC19000835
:101B60000000000000000000010000001000000064
:0C1B7000000000000024F4000000000051
:040000050800018965
:00000001FF
